:030000000208BA39
:0C08BA00787FE4F6D8FD75810802080084
:1008A300696C6F7665796F7500696C6F76656D63DA
:0708B300750063636364003C
:100859008FA08F807F057E0012086AD2B47F057E43
:01086900008E
:10086A00D3EF9400EE940040147D727C00ED1D706D
:0D087A00011CED4C70F7EF1F70E61E80E3CF
:01088700224E
:0808C600C2B5120859C2B422A8
:0808CE00D2B5120859C2B42290
:10088800C2B4C2B6E4F5A07F381208C67F0C1208BD
:0B089800C67F061208C67F010208C6DA
:100800001208887F901208C6E4F508E5089008A34E
:1008100093FF1208CE1208660508E508C394084045
:10082000EA7FD01208C6E4F508E5089008AC93FF0B
:100830001208CE1208660508E508C3940840EAE4E9
:10084000F5087F181208C67FD07E0712086A0508CF
:09085000E508C3940840EB80FEAA
:00000001FF
