:030000000200BC3F
:0C00BC00787FE4F6D8FD7581080200038F
:1000A500696C6F7665796F7500696C6F76656D63E0
:0700B5007500636363640042
:0F005C008F807F057E0012006BD2B47F057E007F
:10006B00D3EF9400EE940040147D727C00ED1D7074
:0D007B00011CED4C70F7EF1F70E61E80E3D6
:010088002255
:0800C800C2B512005CC2B422B3
:0800D000D2B512005CC2B4229B
:10008900C2A6C2A7C2B4C2B67F381200C87F0C127A
:0C00990000C87F061200C87F010200C8EA
:100003001200897F901200C8E4F508E5089000A566
:1000130093FF1200D01200670508E508C394084057
:10002300EA7FD01200C8E4F508E5089000AE93FF1C
:100033001200D01200670508E508C3940840EAE4FB
:10004300F5087F181200C87FD07E0712006B0508E1
:09005300E508C3940840EB80FEAF
:00000001FF
