:0300000002010CEE
:0C010C00787FE4F6D8FD7581090200FF41
:1000EF003F065B4F666D7D077F6F777C395E797159
:0D00FF001200DFAF0912000E12005480F64F
:1000DF00758901758C4C758AD0D2AFD2A9D28C227A
:0400BD007F0A7E0038
:1000C100D3EF9400EE940040147D6E7C00ED1D7022
:0D00D100011CED4C70F7EF1F70E61E80E380
:0100DE0022FF
:10000E00EF75F00A84FEEF75F00A84ABF0D2A6AF5E
:10001E0006EF9000EF93F580C2A67580FFD2A7750C
:10002E0080FEC2A77F057E001200C1D2A6AF03EFED
:10003E0093F580C2A67580FFD2A77580FDC2A77FFB
:06004E00057E000200C166
:03000B0002009A56
:10009A00C0E0C0D0758C4C758AD00508E508B41448
:1000AA000D7508000509E509B43C03750900D0D0AF
:0300BA00D0E03261
:1000540020B0131200BD20B00D0509E509B43C031E
:10006400E4F50930B0FD20B10F1200BD20B109D56F
:10007400090375093C30B1FD20B20C1200BD20B259
:1000840006E4F50930B2FD20B30B1200BD20B30520
:0600940030B3FDB28C2226
:00000001FF
