:030000000200807B
:0C008000787FE4F6D8FD75810702008C43
:100067003F065B4F666D7D077F6F777C395E7971E1
:090077007638373E735C400080CE
:10004900D3EF9400EE940040147D787C00ED1D7090
:0D005900011CED4C70F7EF1F70E61E80E3F8
:010066002277
:10000300EF75F00A84FEEF75F00A84ABF0D2A6AF69
:1000130006EF90006793F580C2A67580FFD2A7759F
:1000230080FEC2A77F057E00120049D2A6AF03EF70
:1000330093F580C2A67580FFD2A77580FDC2A77F06
:06004300057E00020049E9
:05008C007F5902000392
:00000001FF
