:030000000200F308
:0C00F300787FE4F6D8FD7581090200E674
:1000D6003F065B4F666D7D077F6F777C395E797172
:0D00E6001200C6AF0912000E12005480F681
:1000C600758901758C4C758AD0D2AFD2A9D28C2293
:1000A800D3EF9400EE940040147D6E7C00ED1D703B
:0D00B800011CED4C70F7EF1F70E61E80E399
:0100C5002218
:10000E00EF75F00A84FEEF75F00A84ABF0D2A6AF5E
:10001E0006EF9000D693F580C2A67580FFD2A77525
:10002E0080FEC2A77F057E001200A8D2A6AF03EF06
:10003E0093F580C2A67580FFD2A77580FDC2A77FFB
:06004E00057E000200A87F
:03000B000200856B
:10008500C0E0C0D0758C4C758AD00508E508B4C8A9
:100095000D7508000509E509B43C03750900D0D0C4
:0300A500D0E03276
:1000540020B0177F0A7E001200A820B00D0509E524
:1000640009B43C03E4F50930B0FD20B1137F0A7EE6
:10007400001200A820B109D5090375093C30B1FD6F
:010084002259
:00000001FF
