:1013CB007475726E206F6E206164007475726E207E
:1013DB006F6666206164006572726F7221006164D2
:1013EB005F76616C3D25660A0074686520766F6CCC
:1013FB0074616765206973202566560A003F065B9A
:10140B004F666D7D077F6F777C395E7971763837E4
:04141B003E735C4080
:101506007E00D3EF9400EE940040147D6E7C00EDD7
:0F1516001D70011CED4C70F7EF1F70E61E80E397
:0115250022A3
:1014E500758921759850758C3C758AB0758DFD751B
:1014F5008BFDD28ED2A9C29FD29ED29CD2AFD2AC46
:0115050022C3
:10136400EF75F06484FEEF75F06484E5F075F00ABF
:1013740084FBEF75F00A84AAF0D2A6AF06EF9014AE
:101384000893F580C2A67580FFD2A77580FEC2A718
:101394007F05121506D2A6AF03EF93F580C2A6759A
:1013A40080FFD2A77580FDC2A77F05121506D2A6BD
:1013B400AF02EF93F580C2A67580FFD2A77580FBBC
:0713C400C2A77F0502150618
:0E15420012141F7C017D00120D57EC1209AB34
:011550002278
:101295001214E5D2A77580FFC2A7E50E6401703C64
:1012A500F50EC2ACD299E50F14601414601E240229
:1012B50070237BFF7A1379CB12146CD28C80167B4A
:1012C500FF7A1379D6120E88C28C80097BFF7A13B8
:1012D50079E212146C3099FDC299D2ACE50D640126
:1012E500706CF50D1215428F148E138D128C111220
:1012F50009E4121364E4FBFA79807843AF14AE1362
:10130500AD12AC11120909E4FBFA79A07840120874
:10131500008F0B8E0A8D098C08C2ACD2997BFF7A9F
:101325001379E98514288513278512268511251239
:101335000E887BFF7A1379F4850B28850A278509A2
:1013450026850825120E883099FDC299D2ACAF14B6
:0F135500AE13AD12AC111209E412136402129F11
:03000B00021526B5
:10152600C0E0C0D0758C3C758AB00515E515B414BD
:0C15360006751500750D01D0D0D0E03214
:030023000214962E
:10149600C0E0C0D0C298859910750E01E510B43031
:1014A60005750F00800DE510B43105750F01800339
:0814B600750F02D0D0D0E03226
:10080000EC4D6011E8497017ED33EC3304600DE4F2
:10081000FCFFFEFD22E933E8330470F8020A5012AF
:100820000A1B58046009E4CC2481500628500902B0
:100830000A5A284003020A57C0E0EB4A7044B980C4
:1008400006D0E0FB020A46EF4E701CBD8008EBFFAD
:10085000EAFEE9FD80EBE98DF0A4FEE5F00208E98F
:10086000E9CDF9EAFEEBFFEF89F0A4FCE5F0CE89D3
:10087000F0A42EFFE435F0CD89F0A42DFEE435F090
:100880008067EF4E7005BD80D780C3EF8BF0A4ACBE
:10089000F0EE8BF0A42CFCE435F0F8EF8AF0A42CF9
:1008A000E5F038FCE433CB8DF0A42CFCE5F03BF80C
:1008B000EE8AF0A42CFCE5F038F8E433CF89F0A4FC
:1008C0002CFCE5F038CF3400CE89F0A42FFFE5F002
:1008D0003EFEE433C98DF0A42EFEE5F039CD8AF05A
:1008E000A42FFFE5F03EFEE43DFD33D0E0FB5007D2
:1008F0000BBB000F020A5AEC2CFCEF33FFEE33FE69
:06090000ED33FD020A3296
:10090600020A5AEC5D046005E859047003020A50B5
:10091600120A1B580460F6EC4860F2EC7004FDFE07
:10092600FF22C860DB2481C85009C39860025006C4
:10093600020A579850CAF582E9294B4A7005AB82DC
:10094600020A4675F0007C1A7880C3EF9BEE9AED9A
:1009560099400DC3EF9BFFEE9AFEED99FDE842F03C
:10096600DC23ACF0D0E0FFD0E0FED0E0FDAB82208F
:10097600E7101BEB60BAEC2CFCEF33FFEE33FEED19
:1009860033FD020A32E803F830E705C0F075F000DF
:10099600EF2FFFEE33FEED33FD40B830E7C280AAFD
:1009A60075F020800E75F010800575F0087D007ECC
:1009B600007F003392D530D503120D8DEC334010F5
:1009C600EF33FFEE33FEED33FDEC33FCD5F0ED22D5
:0E09D600E5F0247EA2D513CC92E7CDCEFF2211
:1009E400EDD2E7CD33EC3392D524814006E4FFFE0B
:1009F400FDFC22FCE4CFCECDCC24E0501174FF806A
:100A0400EDC3CC13CCCD13CDCE13CECF13CF047006
:070A1400F030D5DE020D8D6C
:100E2600E5392425F8E605392278223007027825A7
:100E3600E475F001120D9B020CFF2000EB7F2ED211
:100E4600008018EF540F2490D43440D4FF30040BA4
:100E5600EF24BFB41A0050032461FFE53A6002157F
:100E66003A053DE53D7002053C30070D7822E475F4
:100E7600F001120D9BEF020D450214BE7403D2075A
:100E86008003E4C207F5398B228A238924E4F53AE4
:100E9600F53CF53DE53A60077F20120E6180F57559
:100EA6003BFFC201C200C202C203C205C206C2089B
:100EB600120E2FFF700D3007057F00120E72AF3D28
:100EC600AE3C22B4255FC2D5C204120E2FFF24D039
:100ED600B40A00501A75F00A783A30D50508B6FFFC
:100EE6000106C6A426F620D5047002D20380D924B2
:100EF600CFB41A00EF5004C2E5D20402115FD2014A
:100F060080C6D20080C0D20280BCD2D580BAD205BB
:100F160080B47F20120E612002077401B53A0040AA
:100F2600F1120E26FF120E61020E9AD208D2068028
:100F360095120E26FB120E26FA120E26F94A4B7051
:100F46000679567A127BFF20022EE53A602A7E0049
:100F56008E82758300120D1860060EEE653B70F0EA
:100F6600C2D5EBC0E0EAC0E0E9C0E0EE1211BFD0A6
:100F7600E0F9D0E0FAD0E0FB120CFFFF60AAEBC06C
:100F8600E0EAC0E0E9C0E0120E61D0E02401F9D049
:100F9600E03400FAD0E0FBE53B0460DCD53BD980C9
:100FA60087D20280A21211A260F7E53B70010412FB
:100FB6000A65A93B600DE53B600914F53B12124931
:100FC600EF60F3EA30E702F404C3995077EAF425B8
:100FD6003B0430E701E404F53B800D1211A260C129
:100FE600EA053B253B120A65EA7838F630E701E464
:100FF600253B04D53B04200501141211BFE4C0E0D3
:101006001212497838E6601320E70714F6120E49E3
:10101600802204F6D0E014C0E07F00120E49E53BC2
:101026006007120E40153B800B300503120E40D0B0
:10103600E0020E9AD0E00480C51211A260A0E53B42
:1010460004120A657838EAF6E53B200502600104D9
:0510560024041211BF8B
:10105B0074FF04C0E0121249120E49E53B20050251
:10106B006003120E40D0E0B53BE87F45120E53787B
:10107B0038E67F2B30E7047F2DF404C0E0120E61BD
:10108B00D0E075F00A84C0F0120E4AD0E0120E4A7E
:10109B00020E9A791080027908C206C2088008D223
:1010AB00D5790A8004790AC2D5E53B047002F53B79
:1010BB00E4FAFDFEFF120E26FC7B08200113120E34
:1010CB0026FD7B1030000A120E26FE120E26FF7B29
:1010DB0020EC3382D592D55013C3E43000069FFF2A
:1010EB00E49EFEE42001039DFDE49CFCE4CBF8C2EE
:1010FB0001EC700CCFCECDCCE824F8F870F3801750
:10110B00C3EF33FFEE33FEED33FDEC33FCEB33FB80
:10111B00994002FB0FD8E9EB300105F8D0E0C44849
:10112B00B201C0E00AEC4D4E4F78207B0070C2EA52
:10113B00B53B0040BCC0E01211C1D0F0D0E02001A3
:10114B0004C4C0E0C4B201C0F0120E4AD0F0D5F016
:10115B00EB020E9A120DAB0F3753109E580F084C23
:10116B000F044210A24F10AA4410AA490F1D43109E
:10117B00B0550FE146103F450FAB471276500F0CA1
:10118B002D0F102E0F332B0F14230F3120125F2A2C
:10119B000ECC4800000F2BE53BB4FF03753B06124A
:1011AB000E26FC120E26FD120E26FE120E26FF78C0
:1011BB0031020A94790AA2D5200314300509B9101B
:1011CB00020404B9080104A2D52006025001042030
:1011DB0002689202B53A005034C0E07F2030031908
:1011EB007F30A20272067205500F121218C202C291
:1011FB0006C205C2087F30800F300503E9C0E0123C
:10120B000E61300503D0E0F9D0E0B53ACC300517CC
:10121B007F30B9100C120E617F583004077F788035
:10122B0003B90803120E613002057F2D020E617F98
:10123B00202008F87F2B2006F322920280CF7F001C
:10124B00B4070050052431F8E6FF22286E756C6C4C
:10125B002900D201120E263001F8C201783A30D59E
:10126B000108F6020ECC2D50434958120E262403CA
:10127B00B405004001E490127193120E52743A12AD
:0A128B000E52D203753A0402109EC1
:100A1B00E9D2E7C933E833F892D5EDD2E7CD33EC21
:070A2B0033FC5002B2D5229A
:100A3200EC30E7100FBF000C0EBE00080DBD000425
:100A42000BEB6014A2D5EB13FCED92E7FD2274FFD1
:100A5200FCFDFEFF22E480F8A2D574FF13FC7D802A
:030A6200E480EF3E
:100A6500F920E72824F950037907E4F42402FB1858
:100A7500DBFDE624FB5014E9600DE4F618E604F608
:0F0A8500B40A08E4F6D9F57401F60A22C2D522A4
:100A9400ED33EC3392D5FA602AB4FF33EDC2E77B31
:100AA400FF60067A0A79B9E4227A0A79C220D50469
:100AB4007A0A79BD224E614E002B494E46002D49DB
:100AC4004E4600E47A08F608DAFC7B00740722E854
:100AD400C0E0ECC0E0EDC0E0EEC0E0EFC0E0EA75DD
:100AE400F010A4CAABF075F04DA42BFBE435F0FC78
:100AF400EA2410FAEB34C5FBEC34D9FCEDC2E7FF71
:100B040075F056A4F42411C5F0F434C58FF0A42A6A
:100B1400E5F03BE43CF620E714120CBFD0E0FFD034
:100B2400E0FED0E0FDD0E0FC1209098014F40412C8
:100B34000CBFD0E0FFD0E0FED0E0FDD0E0FC120816
:100B440000D0E0F8E6FAEDD2E7CD33EC332482FBB3
:100B5400E4C3CF33CFCE33CECD33CD33DBF37B07FA
:100B640075F00A846004F6081B0AE5F0F6088FF0B5
:100B7400740AA4FFACF08EF0740AA42CFEACF050FE
:100B8400010C8DF0740AA42CFDE435F0F608DBDECC
:030B9400740722C1
:100B9700020A50E86480F8E933E83360110460F032
:100BA700ED33EC337009E8FCE9FDEAFEEBFF2204C4
:100BB70060DED3EB9FEA9EE99DE8C2E78CF0C2F7BF
:100BC70095F0400CE8CCF8E9CDF9EACEFAEBCFFB8B
:100BD700120A1B85D0F05804700320D5B3E80470BF
:100BE700075002B2D5020A5A92D5EC0460F7E4CC5A
:100BF700C0E0C398F8603B94186008400DD0E0FB54
:100C0700020A32E4FBFAC9FC8028E830E406E4C9AA
:100C1700FBE4CAFCE830E305E4C9CACBFCE85407A7
:100C27006010F8C3E913F9EA13FAEB13FBEC13FCB2
:100C3700D8F130F52FC3E49CFCEF9BFFEE9AFEED55
:100C470099FDD0E0FBEF4E4D4C701222DB03020AF8
:100C570057EC2CFCEF33FFEE33FEED33FDED30E7C1
:100C6700EB020A32EF2BFFEE3AFEED39FDD0E0FB47
:100C770050130BBB0003020A5AED13FDEE13FEEFF0
:080C870013FFEC13FC020A321A
:100C8F003F8000004120000042C80000447A00006D
:100C9F00461C400047C35000497424004B189680EF
:100CAF004CBEBC205A0E1BCA6753C21C749DC5AEE6
:100CBF00FB60065407601C2323120CEDEB543860C5
:100CCF0009120CD9120CE8120800ECF8EDF9EEFA43
:100CDF00EFCB22EB120CE880F1543803241C900C5C
:100CEF008FFE93FC0EEE93FD0EEE930ECE93FF222E
:0300000002155195
:0C155100787FE4F6D8FD75813D0212950C
:100CFF00BB010689828A83E0225002E722BBFE02F3
:090D0F00E32289828A83E4932225
:100D1800BB010CE58229F582E5833AF583E0225090
:100D280006E92582F8E622BBFE06E92582F8E222DA
:0D0D3800E58229F582E5833AF583E49322F4
:100D4500BB010689828A83F0225002F722BBFE018D
:020D5500F32287
:100D5700C2D5EC30E709B2D5E4C39DFDE49CFCEEB7
:100D670030E715B2D5E4C39FFFE49EFE120DD1C351
:100D7700E49DFDE49CFC8003120DD130D507C3E44C
:060D87009FFFE49EFE2226
:0E0D8D00C3E49FFFE49EFEE49DFDE49CFC2277
:100D9B00FAE6FB0808E6F925F0F618E6CA3AF62259
:100DAB00D083D082F8E4937012740193700DA3A3D7
:100DBB0093F8740193F5828883E4737402936860EB
:060DCB00EFA3A3A380DFEB
:1014BE00EFB40A07740D1214C9740A309811A89962
:1014CE00B8130CC2983098FDA899C298B811F6308E
:0714DE0099FDC299F5992266
:10146C00120CFF601CFF09E970010AC0E0EAC0E041
:10147C00EBC0E01214BED0E0FBD0E0FAD0E0F98073
:0A148C00DF7F0A1214BEE4FEFF2207
:10141F00AC16AD17AE18AF197810EC4D4E4F7004D7
:10142F007CA57DA5C3EC13FCED13FDEE13FEEF13AE
:10143F00FF5010EC64CCFCED644CFDEE644EFEEFFF
:10144F0064CEFFD8DF8C168D178E188F19EE547F50
:0D145F00FE228E168F1774A5F518F51922C0
:100DD100BC000BBE0029EF8DF084FFADF022E4CC06
:100DE100F875F008EF2FFFEE33FEEC33FCEE9DECCF
:100DF100984005FCEE9DFE0FD5F0E9E4CEFD22ED15
:100E0100F8F5F0EE8420D21CFEADF075F008EF2F5E
:100E1100FFED33FD4007985006D5F0F222C398FD4F
:050E21000FD5F0EA22EC
:00000001FF
