:100A5800303132333435363738390044495354410C
:050A68004E43453A0079
:0F0A2B008FA07F057E00120A3AD2B47F057E00AD
:100A3A00D3EF9400EE940040147D727C00ED1D709B
:0D0A4A00011CED4C70F7EF1F70E61E80E3FD
:010A5700227C
:10095600C2B4C2B67F38120AA17F0C120AA17F0662
:10096600120AA17F01120AA17F80120AA17F5212E8
:100976000A737F3A120A73120A6D120A6D120A6D11
:100986007F86120AA17F4C120A737F3A120A7312EB
:100996000A6D120A6D120A6D7FC0120AA17F4412F7
:1009A6000A737F49120A737F53120A737F3A120A37
:1009B60073120A6D120A6D7F20120A737F63120A80
:1009C600737F6D120A737F3A120A737F29020A73C4
:080AA100C2B5120A2BC2B422F7
:060A6D00900A58E493FF1B
:080A7300D2B5120A2BC2B42215
:050AB100D290C2912269
:050AB600C290D2912264
:050ABB00C290C291226F
:050AC000D292C2932256
:050AC500C292D2932251
:050ACA00C292C293225C
:1008BD008C348D358F827F80120AA17F52120A737C
:1008CD007F3A120A737F20120A73AF82EF900A5893
:1008DD0093FF120A73E53593FF120A73EB93FF1220
:1008ED000A737F86120AA17F4C120A737F3A120A8D
:1008FD00737F20120A73E53993FF120A73E53B9358
:10090D00FF120A73E53D93FF120A737FC0120AA10D
:10091D007F44120A737F49120A737F53120A737F41
:10092D003A120A73E493FF120A73E493FF120A73E7
:10093D007F20120A737F63120A737F6D120A737F11
:09094D003A120A737F29020A73B1
:080AA90075890112095680FE57
:03000300020A7B73
:0D0A7B00C0E00509E50970020508D0E03271
:03001300020A8856
:0D0A8800C0E0050BE50B7002050AD0E0325E
:03000B00020800E8
:10080000C0E0C0F0C0D075D000C000C004C005C0BA
:1008100006C007758C3C758A80050FE50F700205D0
:100820000E6414450E60030208ACF50EF50FF526B4
:1008300075277DAE26AF27FC7D641209D68E1E8FEC
:100840001FAE26AF277C007D641209D67E007F0A8A
:10085000CFCDCFCECCCE1209D68E2A8F2BAE26AFDF
:10086000277C007D0A1209D68C2E8D2F75280175E4
:100870002900AE28AF297C007D641209D68E228F14
:1008800023AE28AF297C007D641209D67E007F0A42
:10089000CFCDCFCECCCE1209D68E2C8F2DAE28AF99
:1008A000297C007D0A1209D68C308D31D007D00604
:0D08B000D005D004D000D0D0D0F0D0E03280
:03000000020A955C
:0C0A9500787FE4F6D8FD75813D020AA9C7
:1009D600BC000BBE0029EF8DF084FFADF022E4CC05
:1009E600F875F008EF2FFFEE33FEEC33FCEE9DECCE
:1009F600984005FCEE9DFE0FD5F0E9E4CEFD22ED14
:100A0600F8F5F0EE8420D21CFEADF075F008EF2F5D
:100A1600FFED33FD4007985006D5F0F222C398FD4E
:050A26000FD5F0EA22EB
:00000001FF
