:030000000200D12A
:0C00D100787FE4F6D8FD7581070200720C
:10008E00C4E3BAC3A3ACBBB6D3ADC0B4B5BDB5A5BE
:0A009E00C6ACBBFACAC0BDE70A00F9
:10005400D3EF9400EE940040147D727C00ED1D708B
:0D006400011CED4C70F7EF1F70E61E80E3ED
:01007100226C
:1000C100758920758DFD758BFDD28EC29FD29E22C2
:100072001200C1D2997BFF7A00798E120003309967
:0C008200FDC2997FE87E0312005480E765
:100003001200A8601CFF09E970010AC0E0EAC0E021
:10001300EBC0E012002DD0E0FBD0E0FAD0E0F98095
:0A002300DF7F0A12002DE4FEFF2229
:1000A800BB010689828A83E0225002E722BBFE0256
:0900B800E32289828A83E4932289
:10002D00EFB40A07740D120038740A309811A899AC
:10003D00B8130CC2983098FDA899C298B811F63033
:07004D0099FDC299F599220B
:00000001FF
