:030000000205F006
:0C05F000787FE4F6D8FD75811A0204FC47
:100559003031323334353637383900444953544110
:100569004E43453A004E4F5448494E47204745545B
:010579000081
:0F052C008F807F057E0012053BD2B47F057E00D5
:10053B00D3EF9400EE940040147D6E7C00ED1D70A3
:0D054B00011CED4C70F7EF1F70E61E80E301
:010558002280
:1005B600D2A00000000000000000000000000000C3
:0A05C60000000000000000C2A022A7
:0603AF008F18E518702311
:1003B500F519F51AE51A90056E93FF1205E8120571
:1003C50037051AE51A70020519C3940BE51994004F
:0303D50040E222E1
:1003D800E5186401600302047D7F0AFEFDFCAB178B
:1003E800AA16A915A814D312039E5004C2A380020A
:1003F800D2A3E47B64FAF9F8AF17AE16AD15AC14C6
:100408001202FE8E0A8F0BE47B64FAF9F8AF17AE7E
:1004180016AD15AC141202FEAC00AD01AE02AF036E
:10042800E47B0AFAF9F81202FE8E0E8F0FE47B6461
:10043800FAF9F8AF17AE16AD15AC141202FEAC00FF
:10044800AD01AE02AF03E47B0AFAF9F81202FEAE80
:1004580002AF038E128F13E50B1205E3E50F1205A9
:10046800E3E5131205E37F201205E87F631205E830
:060478007F6D1205E82271
:10047E00AF8DEFFEAD8B7C00E42DF50DEC3EF50C53
:10048E00AE08AF09E4FDFBFA7901F8120273EF250D
:10049E000DF50DEE350CF50CE4F58DF58BAC0CADC4
:1004AE000D1201B97B9A7A9979D9783F12000EE430
:1004BE00FBFA79C878421201171201F28F178E16C5
:1004CE008D158C14E47F64FEFDFCAB17AA16A915DE
:1004DE00A814D312039E5006E5114510700AE4F5D8
:0E04EE0017F516F515F514227F011203AF2243
:05060700C2A0C2A12207
:0B05FC00758910D2AFE4F58DF58B225D
:10059A00C2A6C2A7C2B4C2B67F381200037F0C1229
:0C05AA0000037F061200037F0102000323
:08000300C2B512052CC2B422A3
:0505E30090055993FF93
:0805E800D2B512052CC2B422A9
:10057A007F80120003E4FBFAEB90056493FF1205F7
:0F058A00E81205370BBB00010AEB64094A70E960
:01059900223F
:1004FC0012059AE4F510F5111206071205FC120507
:10050C007A1205B630A1FDD28E20A1FDC28E7510D7
:10051C000075110112047E7F0A7E0012053B80DEFD
:03000B000205D01B
:1005D000C0E00509E50970020508758D00758B00FE
:0305E000D0E03236
:10000E00EC4D6011E8497017ED33EC3304600DE4EC
:10001E00FCFFFEFD22E933E8330470F802025E12A3
:10002E00022958046009E4CC2481500628500902A4
:10003E000268284003020265C0E0EB4A7044B980B2
:10004E0006D0E0FB020254EF4E701CBD8008EBFFA1
:10005E00EAFEE9FD80EBE98DF0A4FEE5F00200F783
:10006E00E9CDF9EAFEEBFFEF89F0A4FCE5F0CE89CD
:10007E00F0A42EFFE435F0CD89F0A42DFEE435F08A
:10008E008067EF4E7005BD80D780C3EF8BF0A4ACB8
:10009E00F0EE8BF0A42CFCE435F0F8EF8AF0A42CF3
:1000AE00E5F038FCE433CB8DF0A42CFCE5F03BF806
:1000BE00EE8AF0A42CFCE5F038F8E433CF89F0A4F6
:1000CE002CFCE5F038CF3400CE89F0A42FFFE5F0FC
:1000DE003EFEE433C98DF0A42EFEE5F039CD8AF054
:1000EE00A42FFFE5F03EFEE43DFD33D0E0FB5007CC
:1000FE000BBB000F020268EC2CFCEF33FFEE33FE5D
:06010E00ED33FD0202408A
:10011400020268EC5D046005E85904700302025EA3
:10012400120229580460F6EC4860F2EC7004FDFEFB
:10013400FF22C860DB2481C85009C39860025006BE
:100144000202659850CAF582E9294B4A7005AB82D0
:1001540002025475F0007C1A7880C3EF9BEE9AED8E
:1001640099400DC3EF9BFFEE9AFEED99FDE842F036
:10017400DC23ACF0D0E0FFD0E0FED0E0FDAB822089
:10018400E7101BEB60BAEC2CFCEF33FFEE33FEED13
:1001940033FD020240E803F830E705C0F075F000D3
:1001A400EF2FFFEE33FEED33FD40B830E7C280AAF7
:1001B40075F020800E75F010800575F0087D007EC6
:1001C400007F003392D530D503120390EC334010F6
:1001D400EF33FFEE33FEED33FDEC33FCD5F0ED22CF
:0E01E400E5F0247EA2D513CC92E7CDCEFF220B
:1001F200EDD2E7CD33EC3392D524814006E4FFFE05
:10020200FDFC22FCE4CFCECDCC24E0501174FF8063
:10021200EDC3CC13CCCD13CDCE13CECF13CF047000
:07022200F030D5DE0203906D
:10022900E9D2E7C933E833F892D5EDD2E7CD33EC1B
:0702390033FC5002B2D52294
:10024000EC30E7100FBF000C0EBE00080DBD00041F
:100250000BEB6014A2D5EB13FCED92E7FD2274FFCB
:10026000FCFDFEFF22E480F8A2D574FF13FC7D8024
:03027000E480EF38
:10027300E88FF0A4CC8BF0A42CFCE98EF0A42CFC2A
:100283008AF0EDA42CFCEA8EF0A4CDA8F08BF0A4A8
:100293002DCC3825F0FDE98FF0A42CCD35F0FCEB07
:1002A3008EF0A4FEA9F0EB8FF0A4CFC5F02ECD39CC
:0F02B300FEE43CFCEAA42DCE35F0FDE43CFC2239
:1002C20075F008758200EF2FFFEE33FECD33CDCCF3
:1002D20033CCC58233C5829BED9AEC99E582984076
:1002E2000CF582EE9BFEED9AFDEC99FC0FD5F0D653
:1002F200E4CEFBE4CDFAE4CCF9A88222B800C1B97D
:100302000059BA002DEC8BF084CFCECDFCE5F0CBBA
:10031200F97818EF2FFFEE33FEED33FDEC33FCEBF3
:1003220033FB10D703994004EB99FB0FD8E5E4F9AE
:10033200FA227818EF2FFFEE33FEED33FDEC33FC9B
:10034200C933C910D7059BE99A4007EC9BFCE99A8F
:10035200F90FD8E0E4C9FAE4CCFB2275F010EF2FD4
:10036200FFEE33FEED33FDCC33CCC833C810D707D4
:100372009BEC9AE899400AED9BFDEC9AFCE899F80F
:0E0382000FD5F0DAE4CDFBE4CCFAE4C8F922A2
:0E039000C3E49FFFE49EFEE49DFDE49CFC227E
:10039E00EB9FF5F0EA9E42F0E99D42F0E89C45F0B5
:0103AE00222C
:00000001FF
