:0300000002001EDD
:0C001E00787FE4F6D8FD75810B020065C8
:100181003F065B4F666D7D077F6F777C395E7971C6
:090191007638373E735C40000033
:03000600010B7F6C
:10014900D3EF9400EE940040147D727C00ED1D7095
:0D015900011CED4C70F7EF1F70E61E80E3F7
:010166002276
:1000AA00EF75F00A84FEEF75F00A84ABF07580FFF5
:1000BA00D2A77580FEC2A7D2A6AF06EF90018193A0
:1000CA00F580C2A67F057E001201497580FFD2A77E
:1000DA007580FDC2A7D2A6AF03EF93F580C2A67FB3
:0600EA00057E0002014941
:10016700758911758C4B758D4B758AFD758BFDD215
:0A017700A9D2ABD28CD28ED2AF22F7
:0A000E00120167AF0A1200AA80F980
:03000300020018E0
:03001800C28C3265
:03000B00020124CB
:10012400C0E0C0D0758C4B758AFD0508E508B40A9B
:100134000F750800050AE50AD3943C4003750A00CC
:05014400D0D0D0E03234
:03001B000200F0F0
:1000F000C0E0C0D075D000C000C007758D4B758BB7
:10010000FD0509E509B40A13750900850B90AF0BCD
:100110007801EF08800103D8FDF50BD007D000D09F
:04012000D0D0E03229
:10002A0002000EE493A3F8E493A34003F68001F2DE
:10003A0008DFF48029E493A3F85407240CC8C333D7
:10004A00C4540F4420C8834004F456800146F6DFA6
:10005A00E4800B0102040810204080900006E47E30
:10006A00019360BCA3FF543F30E509541FFEE4939B
:10007A00A360010ECF54C025E060A840B8E493A362
:10008A00FAE493A3F8E493A3C8C582C8CAC583CA8D
:10009A00F0A3C8C582C8CAC583CADFE9DEE780BE45
:0100090000F6
:00000001FF
