:0300000002000EED
:0C000E00787FE4F6D8FD758120020055D3
:1000F3003F065B4F666D7D077F6F777C395E797155
:100103007638373E735C4000804C53206973206619
:0F0113006976650052532069732066697665002E
:1001C600010800010C00010B00010A00C180C18179
:0F0122008F807F057E00120131D2B47F057E00F1
:10013100D3EF9400EE940040147D727C00ED1D70AD
:0D014100011CED4C70F7EF1F70E61E80E30F
:01014E00228E
:08000300C2B5120122C2B422B1
:0801F400D2B5120122C2B422AF
:10009A00C2A6C2A7C2B4C2B67F381200037F0C122E
:1000AA0000037F061200037F011200037F80120003
:1000BA0003E4F509E50990010C93FF1201F412011A
:1000CA002D0509E509C3940A40EA7FC0120003E43A
:1000DA00F509E50990011793FF1201F412012D05A4
:0900EA0009E509C3940A40EA2269
:0D01E7008F088D0CD290C291D292C293224B
:1001D700758901758CF8758A30D28CD2A9D2AF2275
:03014F001201D7C3
:10015200750D02AD0DAF0D1201E77FD07E071201C2
:0F0162003112009A050DE50DD3940A40E680E1B5
:10017100300118E50BD395085004D2968002C2963F
:0E018100E50BC3940A4006E4F50B22C2962259
:10018F00300018E50AD3950C5004D2978002C2971D
:0E019F00E50AC3940A4006E4F50A22C296223D
:03000B000201AD42
:1001AD00C0E0C0D0758CF8758A30050B050A1201B8
:0901BD007112018FD0D0D0E032A4
:10001A0002014FE493A3F8E493A34003F68001F2AC
:10002A0008DFF48029E493A3F85407240CC8C333E7
:10003A00C4540F4420C8834004F456800146F6DFB6
:10004A00E4800B01020408102040809001C6E47E7F
:10005A00019360BCA3FF543F30E509541FFEE493AB
:10006A00A360010ECF54C025E060A840B8E493A372
:10007A00FAE493A3F8E493A3C8C582C8CAC583CA9D
:10008A00F0A3C8C582C8CAC583CADFE9DEE780BE55
:0101D6000028
:00000001FF
