:03000000020800F3
:0C080000787FE4F6D8FD75810D020847F2
:0C09810002080000020A0000020C000046
:10096300D3EF9400EE940040147D787C00ED1D706D
:0D097300011CED4C70F7EF1F70E61E80E3D5
:010980002254
:10088C00758901758CFF758AF6D28CD2A9D2AF7599
:10089C0090FF750C00750D3220B029C3E50D9464E2
:1008AC00E50C9400500B740A250DF50DE4350CF590
:1008BC000CE50D6464450C7004F50CF50D7F057E9C
:1008CC000012096320B1D1D3E50D9400E50C94001E
:1008DC00400C74F6250DF50D74FF350CF50CE50D7B
:1008EC00450C7005F50C750D5A7F057E00120963D9
:0208FC0080A6D4
:03000B000208FEEA
:1008FE00C0E0C0D0758CFF758AF60509E509700257
:10090E000508050BE50B7002050AD3E509950DE503
:10091E0008950C5004D2908002C290C3E5099464ED
:10092E00E50894004006750800750900D3E50B94A0
:10093E0050E50A94005004D2928002C292C3E50B95
:10094E009464E50A94004006750A00750B00C29186
:05095E00D0D0D0E03212
:10080C0002088CE493A3F8E493A34003F68001F26E
:10081C0008DFF48029E493A3F85407240CC8C333ED
:10082C00C4540F4420C8834004F456800146F6DFBC
:10083C00E4800B0102040810204080900981E47EC2
:10084C00019360BCA3FF543F30E509541FFEE493B1
:10085C00A360010ECF54C025E060A840B8E493A378
:10086C00FAE493A3F8E493A3C8C582C8CAC583CAA3
:10087C00F0A3C8C582C8CAC583CADFE9DEE780BE5B
:01098D000069
:00000001FF
