:04017C000208FFFF77
:10000300C290D291D292D293D294D295D296D297D1
:10001300E5091509AE08700215084E70F3D290C2B7
:1000230091D292D293D294D295D296D297E50915D2
:1000330009AE08700215084E70F3D290D291C292A5
:10004300D293D294D295D296D297E5091509AE08E8
:10005300700215084E70F3D290D291D292C293D20D
:1000630094D295D296D297E5091509AE0870021578
:10007300084E70F3D290D291D292D293C294D29579
:10008300D296D297E5091509AE08700215084E708D
:10009300F3D290D291D292D293D294C295D296D2E5
:1000A30097E5091509AE08700215084E70F3D29052
:1000B300D291D292D293D294D295C296D297E50995
:1000C3001509AE08700215084E70F3D290D291D282
:1000D30092D293D294D295D296C297E5091509AEDE
:0D00E30008700215084E700302000380EE45
:030000000200F00B
:0C00F000787FE4F6D8FD75810902013725
:1000FC00020003E493A3F8E493A34003F68001F217
:10010C0008DFF48029E493A3F85407240CC8C33304
:10011C00C4540F4420C8834004F456800146F6DFD3
:10012C00E4800B010204081020408090017CE47EE6
:10013C00019360BCA3FF543F30E509541FFEE493C8
:10014C00A360010ECF54C025E060A840B8E493A38F
:10015C00FAE493A3F8E493A3C8C582C8CAC583CABA
:10016C00F0A3C8C582C8CAC583CADFE9DEE780BE72
:01018000007E
:00000001FF
