:1011730061686561642066617374006168656164B8
:1011830020736C6F77006261636B20666173740018
:101193006261636B20736C6F77006C6566742066A5
:1011A300617374006C65667420736C6F7700726989
:1011B300676874206661737400726967687420736A
:1011C3006C6F770073746F70006572726F720030AA
:1011D3003132333435363738392D0044495354418D
:0511E3004E43453A00F7
:0F12C6008FA07F057E001212D5D2B47F057E0067
:1012D500D3EF9400EE940040147D727C00ED1D70F8
:0D12E500011CED4C70F7EF1F70E61E80E35A
:0112F20022D9
:10105900C2B4C2B6E4F5A07F381213FE7F0C121396
:10106900FE7F061213FE7F011213FE7F801213FE0C
:101079007F521213DF7F3A1213DF1213D91213D9D9
:101089001213D97F721213DF7F701213DF7F6D1273
:1010990013DF7F881213FE7F4C1213DF7F3A12137E
:1010A900DF1213D91213D91213D97F721213DF7FEA
:1010B900701213DF7F6D1213DF7FC01213FE7F449E
:1010C9001213DF7F491213DF7F531213DF7F3A12A6
:1010D90013DF1213D91213D91213D91213D97F633B
:0810E9001213DF7F6D0213DF1B
:0813FE00C2B51212C6C2B422EE
:0613D9009011DCE493FF1B
:0813DF00D2B51212C6C2B422FD
:0613F30075086475086432
:0513F900D290C2912218
:05140600C290D291220A
:05140B00C290C2912215
:05141000D292C29322FC
:05141500C292D29322F7
:05141A00C292C2932202
:1011E8008C5A8D5B8F82E4F5A07F821213FEAF824A
:1011F800EF9011D293FF1213DFE55B93FF1213DF19
:10120800EB93FF1213DF7F8A1213FEE55F93FF1241
:1012180013DFE56193FF1213DFE56393FF1213DF1A
:101228007FC41213FEE56593FF1213DFE56793FF92
:101238001213DFE56993FF1213DFE56B93FF0213C7
:01124800DFC6
:1013C900758921758C3C758AB0D2AFD2A9D28C228D
:10136600E4F5C9F5C875CBFF75CA9C85CBCD85CA92
:0A137600CCC2CFD2ADD2AFD2CA2252
:10138000759850758DFD758BFDD28EC29FD29ED201
:061390009CD2AFD2AC229A
:10139600C289D2A8D288D2AFC28BD2AAD28AD2AF01
:0113A6002224
:0810F1008F3F8E3E8D3D8C3CCB
:1010F90085474B85464A854549854448AB43AA42BD
:10110900A941A8401208038F478E468D458C448F0C
:101119004F8E4E8D4D8C4CAF53AE52AD51AC50AB42
:1011290047AA46A945A8441208078F538E528D51E4
:101139008C50AB4BAA4AA949A848AF47AE46AD4522
:10114900AC441208038F578E568D558C54E4FFFE1C
:10115900FD7C3FAB53AA52A951A8501208F8AB4FD6
:09116900AA4EA94DA84C1208077A
:01117200225A
:10124900AC07E4120A08C004C005C006C007AC2DEB
:10125900AD2EE4120A038F438E428D418C40D00794
:10126900D006D005D0041210F1120A3C8F08E50807
:10127900C39464400475086422E508D394005003BC
:04128900E4F508225E
:100F4F001213661213C912105912138075086475A3
:100F5F003764121396E5186401451770F8F517F505
:100F6F0018C2ACD299E515600302104FE516120CAA
:100F7F00111046000FA2411016420FEE430FC64448
:100F8F001038530FB1611024621002630FDA64003E
:100F9F0000104F1213F31214107BFF7A11797302A2
:100FAF00104C7508327508321213F91214107BFFAA
:100FBF007A11797E02104C75086475086412140654
:100FCF001214157BFF7A11798980727508327508B2
:100FDF00321214061214157BFF7A117993805E7505
:100FEF00086475086412140B1214107BFF7A1179C0
:100FFF009D804A75083275083212140B1214107B3B
:10100F00FF7A1179A780361213F312141A7BFF7A25
:10101F001179B180287508327508321213F912143C
:10102F001A7BFF7A1179BC801412140B12141A7BDD
:10103F00FF7A1179C780067BFF7A1179CC1212F3F0
:0A104F003099FDC299D2AC020F6483
:030003000213A73E
:1013A700C0E0C2A8050AE50A70020509D2A8D0E084
:0113B7003203
:030013000213B81D
:1013B800C0E0C2AA050CE50C7002050BD2AAD0E069
:0113C80032F2
:0300230002134481
:10134400C0D075D000C007C2AC30980FC2987517D2
:1013540000751801AF997515008F16D2ACD007D05F
:02136400D03285
:03000B00020C5094
:100C5000C0E0C0F0C083C082C0D075D000C000C06A
:100C600001C002C003C004C005C006C007758C3CAB
:100C7000758A800510E5107002050F6414450F6039
:100C800003020F34F50FF510AE09AF0AFC7D051213
:100C90000ABD8E2D8F2E750900750A00AE0BAF0CA4
:100CA000120ABD8E2F8F30750B00750C00C3E52E18
:100CB0009530E52D952F5003020D547D3C120ACF3F
:100CC000EF25E0FDEE33FCE4120A037B9C7AC47945
:100CD0002078411208F8C004C005C006C007AF2242
:100CE000AE21AD20AC1FE41209FED003D002D0012A
:100CF000D000120807120A3C8F228E218D208C1FF3
:100D0000E47B64FAF9F8120B60AC00AD01AE02AFFF
:100D100003E4FBFAF9F8C3120C00701DFFFEFDFCA2
:100D2000AB22AA21A920A81FD3120C00400BC2801D
:100D30007FE87E031212D5D280E47F0F7E27FDFC70
:100D4000AB22AA21A920A81FC3120C005003020D38
:100D5000F9020DEDAE2DAF2E7C007D3C120ACFEFD7
:100D600025E0FDEE33FCE4120A037B9C7AC4792073
:100D700078411208F8C004C005C006C007AF22AE13
:100D800021AD20AC1FE41209FED003D002D001D067
:100D900000120807120A3C8F228E218D208C1FE43E
:100DA0007B64FAF9F8120B60AC00AD01AE02AF0340
:100DB000E4FBFAF9F8C3120C00701DFFFEFDFCAB5A
:100DC00022AA21A920A81FD3120C00400BC2807FA9
:100DD000E87E031212D5D280E47F0F7E27FDFCABA4
:100DE00022AA21A920A81FC3120C00400C752200C2
:100DF000752100752000751F00AE2DAF2E7C007D83
:100E000064120ACF8E248F25AE2DAF2E7C007D6418
:100E1000120ACF7E007F0ACFCDCFCECCCE120ACF22
:100E20008E338F34AE2DAF2E7C007D0A120ACF8C0C
:100E3000388D39AE2FAF307C007D64120ACF8E28FA
:100E40008F29AE2FAF307C007D64120ACF7E007FE9
:100E50000ACFCDCFCECCCE120ACF8E358F36AE2F65
:100E6000AF307C007D0A120ACF8C3A8D3BE47BE8E0
:100E70007A03F9F8AF22AE21AD20AC1F120B608EC1
:100E80000D8F0EE47BE87A03F9F8AF22AE21AD2096
:100E9000AC1F120B60AC00AD01AE02AF03E47B648B
:100EA000FAF9F8120B608E118F12E47BE87A03F9DD
:100EB000F8AF22AE21AD20AC1F120B60AC00AD012B
:100EC000AE02AF03E47B64FAF9F8120B60AC00AD3C
:100ED00001AE02AF03E47B0AFAF9F8120B608E1937
:100EE0008F1AE47B0AFAF9F8AF22AE21AD20AC1FCD
:100EF000120B60AE02AF038E1B8F1C85285E852906
:100F00005F853560853661853A62853B63850D6412
:100F1000850E65851166851267851968851A69854C
:100F20001B6A851C6BAB39AA38AD34AC33AF25AE28
:100F3000241211E8D007D006D005D004D003D00287
:0F0F4000D001D000D0D0D082D083D0F0D0E0321A
:03002B0002128D31
:10128D00C0E0C0D0C2CF052C0523E52CD395085066
:10129D0004D2968002C296E52CB46403752C00E549
:1012AD0023D395375004D2978002C297E523B464B7
:0912BD0003752300D0D0D0E0320B
:10080000020AA8E86480F8E933E83360110460F074
:10081000ED33EC337009E8FCE9FDEAFEEBFF22045E
:1008200060DED3EB9FEA9EE99DE8C2E78CF0C2F759
:1008300095F0400CE8CCF8E9CDF9EACEFAEBCFFB25
:10084000120A7385D0F05804700320D5B3E8047001
:10085000075002B2D5020AB292D5EC0460F7E4CC9C
:10086000C0E0C398F8603B94186008400DD0E0FBEE
:10087000020A8AE4FBFAC9FC8028E830E406E4C9ED
:10088000FBE4CAFCE830E305E4C9CACBFCE8540742
:100890006010F8C3E913F9EA13FAEB13FBEC13FC4D
:1008A000D8F130F52FC3E49CFCEF9BFFEE9AFEEDF0
:1008B00099FDD0E0FBEF4E4D4C701222DB03020A93
:1008C000AFEC2CFCEF33FFEE33FEED33FDED30E704
:1008D000EB020A8AEF2BFFEE3AFEED39FDD0E0FB8A
:1008E00050130BBB0003020AB2ED13FDEE13FEEF33
:0808F00013FFEC13FC020A8A5D
:1008F800EC4D6011E8497017ED33EC3304600DE4FA
:10090800FCFFFEFD22E933E8330470F8020AA8125E
:100918000A7358046009E4CC24815006285009025F
:100928000AB2284003020AAFC0E0EB4A7044B9801B
:1009380006D0E0FB020A9EEF4E701CBD8008EBFF5C
:10094800EAFEE9FD80EBE98DF0A4FEE5F00209E19D
:10095800E9CDF9EAFEEBFFEF89F0A4FCE5F0CE89DA
:10096800F0A42EFFE435F0CD89F0A42DFEE435F097
:100978008067EF4E7005BD80D780C3EF8BF0A4ACC5
:10098800F0EE8BF0A42CFCE435F0F8EF8AF0A42C00
:10099800E5F038FCE433CB8DF0A42CFCE5F03BF813
:1009A800EE8AF0A42CFCE5F038F8E433CF89F0A403
:1009B8002CFCE5F038CF3400CE89F0A42FFFE5F009
:1009C8003EFEE433C98DF0A42EFEE5F039CD8AF061
:1009D800A42FFFE5F03EFEE43DFD33D0E0FB5007D9
:1009E8000BBB000F020AB2EC2CFCEF33FFEE33FE18
:0609F800ED33FD020A8A46
:1009FE0075F020800E75F010800575F0087D007E74
:100A0E00007F003392D530D503120BF2EC33401039
:100A1E00EF33FFEE33FEED33FDEC33FCD5F0ED227C
:0E0A2E00E5F0247EA2D513CC92E7CDCEFF22B8
:100A3C00EDD2E7CD33EC3392D524814006E4FFFEB2
:100A4C00FDFC22FCE4CFCECDCC24E0501174FF8011
:100A5C00EDC3CC13CCCD13CDCE13CECF13CF0470AE
:070A6C00F030D5DE020BF2B1
:100A7300E9D2E7C933E833F892D5EDD2E7CD33ECC9
:070A830033FC5002B2D52242
:100A8A00EC30E7100FBF000C0EBE00080DBD0004CD
:100A9A000BEB6014A2D5EB13FCED92E7FD2274FF79
:100AAA00FCFDFEFF22E480F8A2D574FF13FC7D80D2
:030ABA00E480EFE6
:030000000213E701
:0C13E700787FE4F6D8FD75816B020F4F93
:100ABD00EF8DF0A4A8F0CF8CF0A428CE8DF0A42E4D
:020ACD00FE2207
:100ACF00BC000BBE0029EF8DF084FFADF022E4CC0B
:100ADF00F875F008EF2FFFEE33FEEC33FCEE9DECD4
:100AEF00984005FCEE9DFE0FD5F0E9E4CEFD22ED1A
:100AFF00F8F5F0EE8420D21CFEADF075F008EF2F64
:100B0F00FFED33FD4007985006D5F0F222C398FD54
:050B1F000FD5F0EA22F1
:100B240075F008758200EF2FFFEE33FECD33CDCC88
:100B340033CCC58233C5829BED9AEC99E58298400B
:100B44000CF582EE9BFEED9AFDEC99FC0FD5F0D6E8
:100B5400E4CEFBE4CDFAE4CCF9A88222B800C1B912
:100B64000059BA002DEC8BF084CFCECDFCE5F0CB50
:100B7400F97818EF2FFFEE33FEED33FDEC33FCEB89
:100B840033FB10D703994004EB99FB0FD8E5E4F944
:100B9400FA227818EF2FFFEE33FEED33FDEC33FC31
:100BA400C933C910D7059BE99A4007EC9BFCE99A25
:100BB400F90FD8E0E4C9FAE4CCFB2275F010EF2F6A
:100BC400FFEE33FEED33FDCC33CCC833C810D7076A
:100BD4009BEC9AE899400AED9BFDEC9AFCE899F8A5
:0E0BE4000FD5F0DAE4CDFBE4CCFAE4C8F92238
:0E0BF200C3E49FFFE49EFEE49DFDE49CFC2214
:100C0000EB9FF5F0EA9E42F0E99D42F0E89C45F04A
:010C100022C1
:100C1100D083D082F8E4937012740193700DA3A372
:100C210093F8740193F5828883E473740293686086
:060C3100EFA3A3A380DF86
:1012F300120C37601CFF09E970010AC0E0EAC0E084
:10130300EBC0E012131DD0E0FBD0E0FAD0E0F9808F
:0A131300DF7F0A12131DE4FEFF2223
:100C3700BB010689828A83E0225002E722BBFE02BB
:090C4700E32289828A83E49322EE
:10131D00EFB40A07740D121328740A309811A899A6
:10132D00B8130CC2983098FDA899C298B811F63030
:07133D0099FDC299F5992208
:00000001FF
