:03000000020800F3
:0C080000787FE4F6D8FD75810B020847F4
:08093700020A000002080000A2
:1008E100E4F508F509D2AFD2A8C289E50945086047
:1008F100FAAE0AAF0B7C007D0A12088CEC701AED7F
:1009010014600C14600E2402700FE4F590800D75D4
:1009110090F0800875900F80037590FEE4F508F55E
:030921000980C882
:03000300020924CB
:10092400C0E0050BE50B7002050A750800750901A6
:03093400D0E032DE
:10080C000208E1E493A3F8E493A34003F68001F219
:10081C0008DFF48029E493A3F85407240CC8C333ED
:10082C00C4540F4420C8834004F456800146F6DFBC
:10083C00E4800B0102040810204080900937E47E0C
:10084C00019360BCA3FF543F30E509541FFEE493B1
:10085C00A360010ECF54C025E060A840B8E493A378
:10086C00FAE493A3F8E493A3C8C582C8CAC583CAA3
:10087C00F0A3C8C582C8CAC583CADFE9DEE780BE5B
:01093F0000B7
:10088C00BC000BBE0029EF8DF084FFADF022E4CC50
:10089C00F875F008EF2FFFEE33FEEC33FCEE9DEC19
:1008AC00984005FCEE9DFE0FD5F0E9E4CEFD22ED5F
:1008BC00F8F5F0EE8420D21CFEADF075F008EF2FA9
:1008CC00FFED33FD4007985006D5F0F222C398FD9A
:0508DC000FD5F0EA2237
:00000001FF
