:03000000020A777A
:0C0A7700787FE4F6D8FD75812B0209CED3
:100A420030313233343536373839003F065B4F6642
:050A52006D7D077F6FC0
:0F09FD008FA07F057E00120A0CD2B47F057E000A
:100A0C00D3EF9400EE940040147D6E7C00ED1D70CD
:0D0A1C00011CED4C70F7EF1F70E61E80E32B
:010A290022AA
:080A8300C2B51209FDC2B42244
:080A8B00D2B51209FDC2B4222C
:10099A00E4F510F511F512F513F50CF50DF518F54A
:1009AA0019F51CF51DF50EF50FF51AF51BF51EF5D3
:1009BA001F75890143880F758C3C758A80D2A9D22C
:0409CA008CD2AF22FA
:100949008C228D238F827F80120A837F52120A8B19
:100959007F3A120A8BAF82EF900A4293FF120A8BF9
:10096900E52393FF120A8BEB93FF120A8B7F861202
:100979000A837F4C120A8B7F3A120A8BE52793FF71
:10098900120A8BE52993FF120A8BE52B93FF020AC2
:010999008BD2
:100A2A00C2B4C2B67F38120A837F0C120A837F06C9
:080A3A00120A837F01020A8306
:1009CE00D2AFD2A8D2AA120A2A12099A850E268569
:1009DE000F27851A28851B29851E2A851F2BAB1DDF
:0F09EE00AA1CAD19AC18AF0DAE0C12094980DD73
:03000300020A5797
:100A5700C0E00509E5097002050830B2FDD0E032B3
:03001300020A6777
:100A6700C0E0050BE50B7002050A30B3FDD0E0329C
:03000B00020800E8
:10080000C0E0C0F0C0D075D000C000C004C005C0BA
:1008100006C007758C3C758A800515E515700205C4
:10082000140517E51770020516E515640A451470DE
:100830004CF514F515AE08AF09FC7D051208E28EE3
:10084000108F117508007509007D641208F48E0C74
:100850008F0DAE10AF117C007D641208F47E007F16
:100860000ACFCDCFCECCCE1208F48E188F19AE1091
:10087000AF117C007D0A1208F48C1C8D1DE51764F5
:100880000A4516704CF516F517AE0AAF0BFC7D0540
:100890001208E28E128F13750A00750B007D641228
:1008A00008F48E0E8F0FAE12AF137C007D64120819
:1008B000F47E007F0ACFCDCFCECCCE1208F48E1AB4
:1008C0008F1BAE12AF137C007D0A1208F48C1E8DB4
:1008D0001FD007D006D005D004D000D0D0D0F0D0A3
:0208E000E03204
:1008E200EF8DF0A4A8F0CF8CF0A428CE8DF0A42E2A
:0208F200FE22E4
:1008F400BC000BBE0029EF8DF084FFADF022E4CCE8
:10090400F875F008EF2FFFEE33FEEC33FCEE9DECB0
:10091400984005FCEE9DFE0FD5F0E9E4CEFD22EDF6
:10092400F8F5F0EE8420D21CFEADF075F008EF2F40
:10093400FFED33FD4007985006D5F0F222C398FD31
:050944000FD5F0EA22CE
:00000001FF
