:0300000002000EED
:0C000E00787FE4F6D8FD75810F0200C079
:100123003F065B4F666D7D077F6F777C395E797124
:1000C000758901758C4C758AD0758D4C758BD0D225
:1000D000AFD2A9D2ABD28CD28EAB0CAD0BAF0A1281
:0400E000007280F535
:100072008D0E8B0FD2A6EF90012393F580C2A67549
:1000820080FFD2A77580FE1200E4D2A6E50E900191
:100092002393F580C2A67580FFD2A77580FD12005A
:1000A200E4D2A6E50F90012393F580C2A67580FFE6
:0E00B200D2A77580FBC2A77F057E000200EA80
:0600E400C2A77F057E00AB
:1000EA00D3EF9400EE940040147D6E7C00ED1D70F9
:0D00FA00011CED4C70F7EF1F70E61E80E357
:0101070022D5
:03000B00020108E7
:10010800C0E0C0D0758C4C758AD00508E508B404E9
:0B01180005750800B290D0D0D0E03296
:03001B0002001EC2
:10001E00C0E0C0F0C0D075D000C006C007758D4CD2
:10002E00758BD00509E5096414702EF509050DAF21
:10003E000DFEBE0305BFE702F50DE50D75F06484F8
:10004E00F50AE50D75F06484E5F075F00A84F50B9C
:10005E00E50D75F00A8485F00CD007D006D0D0D00F
:04006E00F0D0E032BC
:00000001FF
