:0300000002018971
:0C018900787FE4F6D8FD7581090200D1F2
:1000D1007F807E251201633098FDC298859909853C
:1000E1000908850899E50924CE6013146016146087
:1000F1001914601C2404701CC290C2918019C29012
:10010100D2918013D290C291800DD290D29180076A
:0E011100C2A380037590FF3099FDC29980B99A
:1001630075985053890F438920AB07AA06E4F9F821
:100173007F807E70FDFC12011FEFF404F58D858DE9
:060183008BC2ABD28E22FC
:10011F00C2D5E830E70FB2D5E4C39BFBE49AFAE40B
:10012F0099F9E498F8EC30E717B2D512015512009F
:10013F003FE4C39BFBE49AFAE499F9E498F880034F
:10014F0012003F30D50DE4C39FFFE49EFEE49DFDFA
:04015F00E49CFC22FE
:1000030075F008758200EF2FFFEE33FECD33CDCCB4
:1000130033CCC58233C5829BED9AEC99E582984037
:100023000CF582EE9BFEED9AFDEC99FC0FD5F0D614
:10003300E4CEFBE4CDFAE4CCF9A88222B800C1B93E
:100043000059BA002DEC8BF084CFCECDFCE5F0CB7C
:10005300F97818EF2FFFEE33FEED33FDEC33FCEBB5
:1000630033FB10D703994004EB99FB0FD8E5E4F970
:10007300FA227818EF2FFFEE33FEED33FDEC33FC5D
:10008300C933C910D7059BE99A4007EC9BFCE99A51
:10009300F90FD8E0E4C9FAE4CCFB2275F010EF2F96
:1000A300FFEE33FEED33FDCC33CCC833C810D70796
:1000B3009BEC9AE899400AED9BFDEC9AFCE899F8D1
:0E00C3000FD5F0DAE4CDFBE4CCFAE4C8F92264
:00000001FF
