:030000000201FFFB
:0C01FF00787FE4F6D8FD7581150201241C
:10019E004D6F6E64617900547565736461790057B3
:1001AE0065646E657364617900FF019EFF01A5FFB2
:0201BE0001AD91
:1001C0007580FFC2B5D2B6D2B4AF80C2B4EF20E71B
:0101D000F638
:0101D100220B
:1001D200AE071201C0C2B5C2B68E80D2B4C2B4227A
:1001E200AE071201C0D2B5C2B68E80D2B4C2B4225A
:0D01F200EFD39D40028002AF05EF02011225
:100124007508037509E8780A7C007D007BFF7A0175
:1001340079B77E007F091200D37F381201D27F0F76
:100144001201D27F011201D27F071201D27F8F12D6
:1001540001D2E4FDED75F003A4240AF8860308E651
:10016400FA08E68B138A14F515AB13AA14A9151211
:1001740000F960200515E5157002051414F9120044
:10018400F9FF1201E2E5091509AE08700215084EDF
:0A01940060D780F10DBD03BC80FEB2
:10000300E709F608DFFA8046E709F208DFFA803EDF
:1000130088828C83E709F0A3DFFA8032E309F608CC
:10002300DFFA8078E309F208DFFA807088828C8334
:10003300E309F0A3DFFA806489828A83E0A3F608E8
:10004300DFFA805889828A83E0A3F208DFFA804CC2
:1000530080D280FA80C680D4806980F28033801099
:1000630080A680EA809A80A880DA80E280CA803302
:1000730089828A83ECFAE493A3C8C582C8CCC5837A
:10008300CCF0A3C8C582C8CCC583CCDFE9DEE7804A
:100093000D89828A83E493A3F608DFF9ECFAA9F0C9
:1000A300EDFB2289828A83ECFAE0A3C8C582C8CC1F
:1000B300C583CCF0A3C8C582C8CCC583CCDFEADE38
:1000C300E880DB89828A83E493A3F208DFF980CC9A
:1000D30088F0EF60010E4E60C388F0ED2402B40493
:1000E3000050B9F582EB2402B4040050AF2323453A
:0600F3008223900053730C
:1000F900BB010689828A83E0225002E722BBFE0205
:09010900E32289828A83E4932237
:10011200BB010689828A83F0225002F722BBFE01CC
:02012200F322C6
:00000001FF
